{
  "_format": "hh-sol-artifact-1",
  "contractName": "Vault",
  "sourceName": "contracts/Vault.sol",
  "abi": [
    {
      "inputs": [
        {
          "internalType": "contract IAuthorizer",
          "name": "authorizer",
          "type": "address"
        },
        {
          "internalType": "contract IWETH",
          "name": "weth",
          "type": "address"
        },
        {
          "internalType": "uint256",
          "name": "pauseWindowDuration",
          "type": "uint256"
        },
        {
          "internalType": "uint256",
          "name": "bufferPeriodDuration",
          "type": "uint256"
        },
        {
          "internalType": "address",
          "name": "oracle",
          "type": "address"
        }
      ],
      "stateMutability": "nonpayable",
      "type": "constructor"
    },
    {
      "anonymous": false,
      "inputs": [
        {
          "indexed": true,
          "internalType": "contract IAuthorizer",
          "name": "newAuthorizer",
          "type": "address"
        }
      ],
      "name": "AuthorizerChanged",
      "type": "event"
    },
    {
      "anonymous": false,
      "inputs": [
        {
          "indexed": true,
          "internalType": "contract IERC20",
          "name": "token",
          "type": "address"
        },
        {
          "indexed": true,
          "internalType": "address",
          "name": "sender",
          "type": "address"
        },
        {
          "indexed": false,
          "internalType": "address",
          "name": "recipient",
          "type": "address"
        },
        {
          "indexed": false,
          "internalType": "uint256",
          "name": "amount",
          "type": "uint256"
        }
      ],
      "name": "ExternalBalanceTransfer",
      "type": "event"
    },
    {
      "anonymous": false,
      "inputs": [
        {
          "indexed": true,
          "internalType": "contract IFlashLoanRecipient",
          "name": "recipient",
          "type": "address"
        },
        {
          "indexed": true,
          "internalType": "contract IERC20",
          "name": "token",
          "type": "address"
        },
        {
          "indexed": false,
          "internalType": "uint256",
          "name": "amount",
          "type": "uint256"
        },
        {
          "indexed": false,
          "internalType": "uint256",
          "name": "feeAmount",
          "type": "uint256"
        }
      ],
      "name": "FlashLoan",
      "type": "event"
    },
    {
      "anonymous": false,
      "inputs": [
        {
          "indexed": true,
          "internalType": "address",
          "name": "user",
          "type": "address"
        },
        {
          "indexed": true,
          "internalType": "contract IERC20",
          "name": "token",
          "type": "address"
        },
        {
          "indexed": false,
          "internalType": "int256",
          "name": "delta",
          "type": "int256"
        }
      ],
      "name": "InternalBalanceChanged",
      "type": "event"
    },
    {
      "anonymous": false,
      "inputs": [
        {
          "indexed": false,
          "internalType": "bool",
          "name": "paused",
          "type": "bool"
        }
      ],
      "name": "PausedStateChanged",
      "type": "event"
    },
    {
      "anonymous": false,
      "inputs": [
        {
          "indexed": true,
          "internalType": "bytes32",
          "name": "poolId",
          "type": "bytes32"
        },
        {
          "indexed": true,
          "internalType": "address",
          "name": "liquidityProvider",
          "type": "address"
        },
        {
          "indexed": false,
          "internalType": "contract IERC20[]",
          "name": "tokens",
          "type": "address[]"
        },
        {
          "indexed": false,
          "internalType": "int256[]",
          "name": "deltas",
          "type": "int256[]"
        },
        {
          "indexed": false,
          "internalType": "uint256[]",
          "name": "protocolFeeAmounts",
          "type": "uint256[]"
        }
      ],
      "name": "PoolBalanceChanged",
      "type": "event"
    },
    {
      "anonymous": false,
      "inputs": [
        {
          "indexed": true,
          "internalType": "bytes32",
          "name": "poolId",
          "type": "bytes32"
        },
        {
          "indexed": true,
          "internalType": "address",
          "name": "assetManager",
          "type": "address"
        },
        {
          "indexed": true,
          "internalType": "contract IERC20",
          "name": "token",
          "type": "address"
        },
        {
          "indexed": false,
          "internalType": "int256",
          "name": "cashDelta",
          "type": "int256"
        },
        {
          "indexed": false,
          "internalType": "int256",
          "name": "managedDelta",
          "type": "int256"
        }
      ],
      "name": "PoolBalanceManaged",
      "type": "event"
    },
    {
      "anonymous": false,
      "inputs": [
        {
          "indexed": true,
          "internalType": "bytes32",
          "name": "poolId",
          "type": "bytes32"
        },
        {
          "indexed": true,
          "internalType": "address",
          "name": "poolAddress",
          "type": "address"
        },
        {
          "indexed": false,
          "internalType": "enum IVault.PoolSpecialization",
          "name": "specialization",
          "type": "uint8"
        }
      ],
      "name": "PoolRegistered",
      "type": "event"
    },
    {
      "anonymous": false,
      "inputs": [
        {
          "indexed": true,
          "internalType": "address",
          "name": "relayer",
          "type": "address"
        },
        {
          "indexed": true,
          "internalType": "address",
          "name": "sender",
          "type": "address"
        },
        {
          "indexed": false,
          "internalType": "bool",
          "name": "approved",
          "type": "bool"
        }
      ],
      "name": "RelayerApprovalChanged",
      "type": "event"
    },
    {
      "anonymous": false,
      "inputs": [
        {
          "indexed": true,
          "internalType": "bytes32",
          "name": "poolId",
          "type": "bytes32"
        },
        {
          "indexed": true,
          "internalType": "contract IERC20",
          "name": "tokenIn",
          "type": "address"
        },
        {
          "indexed": true,
          "internalType": "contract IERC20",
          "name": "tokenOut",
          "type": "address"
        },
        {
          "indexed": false,
          "internalType": "uint256",
          "name": "amountIn",
          "type": "uint256"
        },
        {
          "indexed": false,
          "internalType": "uint256",
          "name": "amountOut",
          "type": "uint256"
        }
      ],
      "name": "Swap",
      "type": "event"
    },
    {
      "anonymous": false,
      "inputs": [
        {
          "indexed": true,
          "internalType": "bytes32",
          "name": "poolId",
          "type": "bytes32"
        },
        {
          "indexed": false,
          "internalType": "contract IERC20[]",
          "name": "tokens",
          "type": "address[]"
        }
      ],
      "name": "TokensDeregistered",
      "type": "event"
    },
    {
      "anonymous": false,
      "inputs": [
        {
          "indexed": true,
          "internalType": "bytes32",
          "name": "poolId",
          "type": "bytes32"
        },
        {
          "indexed": false,
          "internalType": "contract IERC20[]",
          "name": "tokens",
          "type": "address[]"
        },
        {
          "indexed": false,
          "internalType": "address[]",
          "name": "assetManagers",
          "type": "address[]"
        }
      ],
      "name": "TokensRegistered",
      "type": "event"
    },
    {
      "inputs": [],
      "name": "WETH",
      "outputs": [
        {
          "internalType": "contract IWETH",
          "name": "",
          "type": "address"
        }
      ],
      "stateMutability": "view",
      "type": "function"
    },
    {
      "inputs": [
        {
          "internalType": "enum IVault.SwapKind",
          "name": "kind",
          "type": "uint8"
        },
        {
          "components": [
            {
              "internalType": "bytes32",
              "name": "poolId",
              "type": "bytes32"
            },
            {
              "internalType": "uint256",
              "name": "assetInIndex",
              "type": "uint256"
            },
            {
              "internalType": "uint256",
              "name": "assetOutIndex",
              "type": "uint256"
            },
            {
              "internalType": "uint256",
              "name": "amount",
              "type": "uint256"
            },
            {
              "internalType": "bytes",
              "name": "userData",
              "type": "bytes"
            }
          ],
          "internalType": "struct IVault.BatchSwapStep[]",
          "name": "swaps",
          "type": "tuple[]"
        },
        {
          "internalType": "contract IAsset[]",
          "name": "assets",
          "type": "address[]"
        },
        {
          "components": [
            {
              "internalType": "address",
              "name": "sender",
              "type": "address"
            },
            {
              "internalType": "bool",
              "name": "fromInternalBalance",
              "type": "bool"
            },
            {
              "internalType": "address payable",
              "name": "recipient",
              "type": "address"
            },
            {
              "internalType": "bool",
              "name": "toInternalBalance",
              "type": "bool"
            }
          ],
          "internalType": "struct IVault.FundManagement",
          "name": "funds",
          "type": "tuple"
        },
        {
          "internalType": "int256[]",
          "name": "limits",
          "type": "int256[]"
        },
        {
          "internalType": "uint256",
          "name": "deadline",
          "type": "uint256"
        }
      ],
      "name": "batchSwap",
      "outputs": [
        {
          "internalType": "int256[]",
          "name": "assetDeltas",
          "type": "int256[]"
        }
      ],
      "stateMutability": "payable",
      "type": "function"
    },
    {
      "inputs": [
        {
          "internalType": "bytes32",
          "name": "poolId",
          "type": "bytes32"
        },
        {
          "internalType": "contract IERC20[]",
          "name": "tokens",
          "type": "address[]"
        }
      ],
      "name": "deregisterTokens",
      "outputs": [],
      "stateMutability": "nonpayable",
      "type": "function"
    },
    {
      "inputs": [
        {
          "internalType": "bytes32",
          "name": "poolId",
          "type": "bytes32"
        },
        {
          "internalType": "address",
          "name": "sender",
          "type": "address"
        },
        {
          "internalType": "address payable",
          "name": "recipient",
          "type": "address"
        },
        {
          "components": [
            {
              "internalType": "contract IAsset[]",
              "name": "assets",
              "type": "address[]"
            },
            {
              "internalType": "uint256[]",
              "name": "minAmountsOut",
              "type": "uint256[]"
            },
            {
              "internalType": "bytes",
              "name": "userData",
              "type": "bytes"
            },
            {
              "internalType": "bool",
              "name": "toInternalBalance",
              "type": "bool"
            }
          ],
          "internalType": "struct IVault.ExitPoolRequest",
          "name": "request",
          "type": "tuple"
        }
      ],
      "name": "exitPool",
      "outputs": [],
      "stateMutability": "nonpayable",
      "type": "function"
    },
    {
      "inputs": [
        {
          "internalType": "contract IFlashLoanRecipient",
          "name": "recipient",
          "type": "address"
        },
        {
          "internalType": "contract IERC20[]",
          "name": "tokens",
          "type": "address[]"
        },
        {
          "internalType": "uint256[]",
          "name": "amounts",
          "type": "uint256[]"
        },
        {
          "internalType": "bytes",
          "name": "userData",
          "type": "bytes"
        }
      ],
      "name": "flashLoan",
      "outputs": [],
      "stateMutability": "nonpayable",
      "type": "function"
    },
    {
      "inputs": [
        {
          "internalType": "bytes4",
          "name": "selector",
          "type": "bytes4"
        }
      ],
      "name": "getActionId",
      "outputs": [
        {
          "internalType": "bytes32",
          "name": "",
          "type": "bytes32"
        }
      ],
      "stateMutability": "view",
      "type": "function"
    },
    {
      "inputs": [],
      "name": "getAuthorizer",
      "outputs": [
        {
          "internalType": "contract IAuthorizer",
          "name": "",
          "type": "address"
        }
      ],
      "stateMutability": "view",
      "type": "function"
    },
    {
      "inputs": [],
      "name": "getDomainSeparator",
      "outputs": [
        {
          "internalType": "bytes32",
          "name": "",
          "type": "bytes32"
        }
      ],
      "stateMutability": "view",
      "type": "function"
    },
    {
      "inputs": [
        {
          "internalType": "address",
          "name": "user",
          "type": "address"
        },
        {
          "internalType": "contract IERC20[]",
          "name": "tokens",
          "type": "address[]"
        }
      ],
      "name": "getInternalBalance",
      "outputs": [
        {
          "internalType": "uint256[]",
          "name": "balances",
          "type": "uint256[]"
        }
      ],
      "stateMutability": "view",
      "type": "function"
    },
    {
      "inputs": [
        {
          "internalType": "address",
          "name": "account",
          "type": "address"
        }
      ],
      "name": "getNextNonce",
      "outputs": [
        {
          "internalType": "uint256",
          "name": "",
          "type": "uint256"
        }
      ],
      "stateMutability": "view",
      "type": "function"
    },
    {
      "inputs": [],
      "name": "getPausedState",
      "outputs": [
        {
          "internalType": "bool",
          "name": "paused",
          "type": "bool"
        },
        {
          "internalType": "uint256",
          "name": "pauseWindowEndTime",
          "type": "uint256"
        },
        {
          "internalType": "uint256",
          "name": "bufferPeriodEndTime",
          "type": "uint256"
        }
      ],
      "stateMutability": "view",
      "type": "function"
    },
    {
      "inputs": [
        {
          "internalType": "bytes32",
          "name": "poolId",
          "type": "bytes32"
        }
      ],
      "name": "getPool",
      "outputs": [
        {
          "internalType": "address",
          "name": "",
          "type": "address"
        },
        {
          "internalType": "enum IVault.PoolSpecialization",
          "name": "",
          "type": "uint8"
        }
      ],
      "stateMutability": "view",
      "type": "function"
    },
    {
      "inputs": [
        {
          "internalType": "bytes32",
          "name": "poolId",
          "type": "bytes32"
        },
        {
          "internalType": "contract IERC20",
          "name": "token",
          "type": "address"
        }
      ],
      "name": "getPoolTokenInfo",
      "outputs": [
        {
          "internalType": "uint256",
          "name": "cash",
          "type": "uint256"
        },
        {
          "internalType": "uint256",
          "name": "managed",
          "type": "uint256"
        },
        {
          "internalType": "uint256",
          "name": "lastChangeBlock",
          "type": "uint256"
        },
        {
          "internalType": "address",
          "name": "assetManager",
          "type": "address"
        }
      ],
      "stateMutability": "view",
      "type": "function"
    },
    {
      "inputs": [
        {
          "internalType": "bytes32",
          "name": "poolId",
          "type": "bytes32"
        }
      ],
      "name": "getPoolTokens",
      "outputs": [
        {
          "internalType": "contract IERC20[]",
          "name": "tokens",
          "type": "address[]"
        },
        {
          "internalType": "uint256[]",
          "name": "balances",
          "type": "uint256[]"
        },
        {
          "internalType": "uint256",
          "name": "lastChangeBlock",
          "type": "uint256"
        }
      ],
      "stateMutability": "view",
      "type": "function"
    },
    {
      "inputs": [],
      "name": "getProtocolFeesCollector",
      "outputs": [
        {
          "internalType": "contract IProtocolFeesCollector",
          "name": "",
          "type": "address"
        }
      ],
      "stateMutability": "view",
      "type": "function"
    },
    {
      "inputs": [
        {
          "internalType": "address",
          "name": "user",
          "type": "address"
        },
        {
          "internalType": "address",
          "name": "relayer",
          "type": "address"
        }
      ],
      "name": "hasApprovedRelayer",
      "outputs": [
        {
          "internalType": "bool",
          "name": "",
          "type": "bool"
        }
      ],
      "stateMutability": "view",
      "type": "function"
    },
    {
      "inputs": [
        {
          "internalType": "bytes32",
          "name": "poolId",
          "type": "bytes32"
        },
        {
          "internalType": "address",
          "name": "sender",
          "type": "address"
        },
        {
          "internalType": "address",
          "name": "recipient",
          "type": "address"
        },
        {
          "components": [
            {
              "internalType": "contract IAsset[]",
              "name": "assets",
              "type": "address[]"
            },
            {
              "internalType": "uint256[]",
              "name": "maxAmountsIn",
              "type": "uint256[]"
            },
            {
              "internalType": "bytes",
              "name": "userData",
              "type": "bytes"
            },
            {
              "internalType": "bool",
              "name": "fromInternalBalance",
              "type": "bool"
            }
          ],
          "internalType": "struct IVault.JoinPoolRequest",
          "name": "request",
          "type": "tuple"
        }
      ],
      "name": "joinPool",
      "outputs": [],
      "stateMutability": "payable",
      "type": "function"
    },
    {
      "inputs": [
        {
          "components": [
            {
              "internalType": "enum IVault.PoolBalanceOpKind",
              "name": "kind",
              "type": "uint8"
            },
            {
              "internalType": "bytes32",
              "name": "poolId",
              "type": "bytes32"
            },
            {
              "internalType": "contract IERC20",
              "name": "token",
              "type": "address"
            },
            {
              "internalType": "uint256",
              "name": "amount",
              "type": "uint256"
            }
          ],
          "internalType": "struct IVault.PoolBalanceOp[]",
          "name": "ops",
          "type": "tuple[]"
        }
      ],
      "name": "managePoolBalance",
      "outputs": [],
      "stateMutability": "nonpayable",
      "type": "function"
    },
    {
      "inputs": [
        {
          "components": [
            {
              "internalType": "enum IVault.UserBalanceOpKind",
              "name": "kind",
              "type": "uint8"
            },
            {
              "internalType": "contract IAsset",
              "name": "asset",
              "type": "address"
            },
            {
              "internalType": "uint256",
              "name": "amount",
              "type": "uint256"
            },
            {
              "internalType": "address",
              "name": "sender",
              "type": "address"
            },
            {
              "internalType": "address payable",
              "name": "recipient",
              "type": "address"
            }
          ],
          "internalType": "struct IVault.UserBalanceOp[]",
          "name": "ops",
          "type": "tuple[]"
        }
      ],
      "name": "manageUserBalance",
      "outputs": [],
      "stateMutability": "payable",
      "type": "function"
    },
    {
      "inputs": [
        {
          "internalType": "enum IVault.SwapKind",
          "name": "kind",
          "type": "uint8"
        },
        {
          "components": [
            {
              "internalType": "bytes32",
              "name": "poolId",
              "type": "bytes32"
            },
            {
              "internalType": "uint256",
              "name": "assetInIndex",
              "type": "uint256"
            },
            {
              "internalType": "uint256",
              "name": "assetOutIndex",
              "type": "uint256"
            },
            {
              "internalType": "uint256",
              "name": "amount",
              "type": "uint256"
            },
            {
              "internalType": "bytes",
              "name": "userData",
              "type": "bytes"
            }
          ],
          "internalType": "struct IVault.BatchSwapStep[]",
          "name": "swaps",
          "type": "tuple[]"
        },
        {
          "internalType": "contract IAsset[]",
          "name": "assets",
          "type": "address[]"
        },
        {
          "components": [
            {
              "internalType": "address",
              "name": "sender",
              "type": "address"
            },
            {
              "internalType": "bool",
              "name": "fromInternalBalance",
              "type": "bool"
            },
            {
              "internalType": "address payable",
              "name": "recipient",
              "type": "address"
            },
            {
              "internalType": "bool",
              "name": "toInternalBalance",
              "type": "bool"
            }
          ],
          "internalType": "struct IVault.FundManagement",
          "name": "funds",
          "type": "tuple"
        }
      ],
      "name": "queryBatchSwap",
      "outputs": [
        {
          "internalType": "int256[]",
          "name": "",
          "type": "int256[]"
        }
      ],
      "stateMutability": "nonpayable",
      "type": "function"
    },
    {
      "inputs": [
        {
          "internalType": "enum IVault.PoolSpecialization",
          "name": "specialization",
          "type": "uint8"
        }
      ],
      "name": "registerPool",
      "outputs": [
        {
          "internalType": "bytes32",
          "name": "",
          "type": "bytes32"
        }
      ],
      "stateMutability": "nonpayable",
      "type": "function"
    },
    {
      "inputs": [
        {
          "internalType": "bytes32",
          "name": "poolId",
          "type": "bytes32"
        },
        {
          "internalType": "contract IERC20[]",
          "name": "tokens",
          "type": "address[]"
        },
        {
          "internalType": "address[]",
          "name": "assetManagers",
          "type": "address[]"
        }
      ],
      "name": "registerTokens",
      "outputs": [],
      "stateMutability": "nonpayable",
      "type": "function"
    },
    {
      "inputs": [
        {
          "internalType": "contract IAuthorizer",
          "name": "newAuthorizer",
          "type": "address"
        }
      ],
      "name": "setAuthorizer",
      "outputs": [],
      "stateMutability": "nonpayable",
      "type": "function"
    },
    {
      "inputs": [
        {
          "internalType": "bool",
          "name": "paused",
          "type": "bool"
        }
      ],
      "name": "setPaused",
      "outputs": [],
      "stateMutability": "nonpayable",
      "type": "function"
    },
    {
      "inputs": [
        {
          "internalType": "address",
          "name": "sender",
          "type": "address"
        },
        {
          "internalType": "address",
          "name": "relayer",
          "type": "address"
        },
        {
          "internalType": "bool",
          "name": "approved",
          "type": "bool"
        }
      ],
      "name": "setRelayerApproval",
      "outputs": [],
      "stateMutability": "nonpayable",
      "type": "function"
    },
    {
      "inputs": [
        {
          "components": [
            {
              "internalType": "bytes32",
              "name": "poolId",
              "type": "bytes32"
            },
            {
              "internalType": "enum IVault.SwapKind",
              "name": "kind",
              "type": "uint8"
            },
            {
              "internalType": "contract IAsset",
              "name": "assetIn",
              "type": "address"
            },
            {
              "internalType": "contract IAsset",
              "name": "assetOut",
              "type": "address"
            },
            {
              "internalType": "uint256",
              "name": "amount",
              "type": "uint256"
            },
            {
              "internalType": "bytes",
              "name": "userData",
              "type": "bytes"
            }
          ],
          "internalType": "struct IVault.SingleSwap",
          "name": "singleSwap",
          "type": "tuple"
        },
        {
          "components": [
            {
              "internalType": "address",
              "name": "sender",
              "type": "address"
            },
            {
              "internalType": "bool",
              "name": "fromInternalBalance",
              "type": "bool"
            },
            {
              "internalType": "address payable",
              "name": "recipient",
              "type": "address"
            },
            {
              "internalType": "bool",
              "name": "toInternalBalance",
              "type": "bool"
            }
          ],
          "internalType": "struct IVault.FundManagement",
          "name": "funds",
          "type": "tuple"
        },
        {
          "internalType": "uint256",
          "name": "limit",
          "type": "uint256"
        },
        {
          "internalType": "uint256",
          "name": "deadline",
          "type": "uint256"
        }
      ],
      "name": "swap",
      "outputs": [
        {
          "internalType": "uint256",
          "name": "amountCalculated",
          "type": "uint256"
        }
      ],
      "stateMutability": "payable",
      "type": "function"
    },
    {
      "stateMutability": "payable",
      "type": "receive"
    }
  ],
  "bytecode": "0x6101806040523480156200001257600080fd5b5060405162006e5038038062006e50833981016040819052620000359162000298565b808584846040518060400160405280601181526020017010985b185b98d95c88158c8815985d5b1d607a1b815250604051806040016040528060018152602001603160f81b815250306001600160a01b031660001b8a806001600160a01b03166080816001600160a01b031660601b815250505030604051620000b8906200028a565b620000c4919062000300565b604051809103906000f080158015620000e1573d6000803e3d6000fd5b5060601b6001600160601b03191660a052600160005560c052815160209283012060e0528051910120610100527f8b73c3c69bb8fe3d512ecc4cf759cc79239f7b179b0ffacaa9a75d522b39400f6101205262000148630163f500831115610194620001a3565b6200015c6276a700821115610195620001a3565b4290910161014081905201610160526200017681620001b8565b50600c80546001600160a01b0319166001600160a01b0392909216919091179055506200032a9350505050565b81620001b457620001b48162000214565b5050565b6040516001600160a01b038216907f94b979b6831a51293e2641426f97747feed46f17779fed9cd18d1ecefcfe92ef90600090a2600380546001600160a01b0390921661010002610100600160a81b0319909216919091179055565b62000226816210905360ea1b62000229565b50565b62461bcd60e51b600090815260206004526007602452600a808404818106603090810160081b958390069590950190829004918206850160101b01602363ffffff0060e086901c160160181b0190930160c81b60445260e882901c90606490fd5b610b50806200630083390190565b600080600080600060a08688031215620002b0578081fd5b8551620002bd8162000314565b6020870151909550620002d08162000314565b8094505060408601519250606086015191506080860151620002f28162000314565b809150509295509295909350565b6001600160a01b0391909116815260200190565b6001600160a01b03811681146200022657600080fd5b60805160601c60a05160601c60c05160e05161010051610120516101405161016051615f726200038e600039806119cc5250806119a85250806128015250806128435250806128225250806110715250806113255250806104b85250615f726000f3fe6080604052600436106101355760003560e01c8063058a628f1461016857806309b2760f146101885780630e8e3e84146101be5780630f5a6efa146101d157806316c38b3c146101fe5780631c0de0511461021e57806352bbbe29146102425780635c38449e1461025557806366a9c7d2146102755780637d3aeb9614610295578063851c1bb3146102b55780638bdb3913146102d557806390193b7c146102f5578063945bcec914610315578063aaabadc514610328578063ad5c46481461034a578063b05f8e481461035f578063b95cac281461038f578063d2946c2b146103a2578063e6c46092146103b7578063ed24911d146103d7578063f6c00927146103ec578063f84d066e1461041a578063f94d46681461043a578063fa6e671d14610469578063fec90d721461048957610163565b36610163576101616101456104b6565b6001600160a01b0316336001600160a01b0316146102066104db565b005b600080fd5b34801561017457600080fd5b5061016161018336600461511c565b6104ed565b34801561019457600080fd5b506101a86101a33660046156a3565b610511565b6040516101b59190615cf2565b60405180910390f35b6101616101cc3660046152e1565b6105c4565b3480156101dd57600080fd5b506101f16101ec3660046151ba565b610700565b6040516101b59190615cbc565b34801561020a57600080fd5b5061016161021936600461541d565b610795565b34801561022a57600080fd5b506102336107ae565b6040516101b593929190615cda565b6101a861025036600461584a565b6107d7565b34801561026157600080fd5b50610161610270366004615619565b610978565b34801561028157600080fd5b50610161610290366004615504565b610d7a565b3480156102a157600080fd5b506101616102b03660046154d6565b610f19565b3480156102c157600080fd5b506101a86102d03660046155f1565b61106d565b3480156102e157600080fd5b506101616102f036600461546d565b6110bf565b34801561030157600080fd5b506101a861031036600461511c565b6110d5565b6101f1610323366004615742565b6110f0565b34801561033457600080fd5b5061033d611224565b6040516101b59190615afd565b34801561035657600080fd5b5061033d611238565b34801561036b57600080fd5b5061037f61037a3660046155cd565b611247565b6040516101b59493929190615e6d565b61016161039d36600461546d565b61130a565b3480156103ae57600080fd5b5061033d611323565b3480156103c357600080fd5b506101616103d2366004615207565b611347565b3480156103e357600080fd5b506101a8611463565b3480156103f857600080fd5b5061040c610407366004615455565b61146d565b6040516101b5929190615b4f565b34801561042657600080fd5b506101f16104353660046156bf565b611497565b34801561044657600080fd5b5061045a610455366004615455565b61157b565b6040516101b593929190615c86565b34801561047557600080fd5b50610161610484366004615170565b6115af565b34801561049557600080fd5b506104a96104a4366004615138565b611641565b6040516101b59190615ccf565b7f00000000000000000000000000000000000000000000000000000000000000005b90565b816104e9576104e981611656565b5050565b6104f5611666565b6104fd61167f565b610506816116ad565b61050e611709565b50565b600061051b611666565b610523611710565b60006105323384600654611725565b6000818152600560205260409020549091506105549060ff16156101f46104db565b60008181526005602052604090819020805460ff1916600190811790915560068054909101905551339082907f3c13bc30b8e878c53fd2a36b679409c073afd75950be43d8858768e956fbc20e906105ad908790615dee565b60405180910390a390506105bf611709565b919050565b6105cc611666565b6000806000805b84518110156106eb5760008060008060006106018a87815181106105f357fe5b60200260200101518961175c565b9c50939850919650945092509050600185600381111561061d57fe5b14156106345761062f848383866117d4565b6106da565b8661064657610641611710565b600196505b600085600381111561065457fe5b141561068557610666848383866117f7565b61066f84611817565b1561062f5761067e8984611824565b98506106da565b61069a61069185611817565b156102076104db565b60006106a5856104d8565b905060028660038111156106b557fe5b14156106cc576106c781848487611836565b6106d8565b6106d88184848761184f565b505b5050600190930192506105d3915050565b506106f5836118bd565b50505061050e611709565b606081516001600160401b038111801561071957600080fd5b50604051908082528060200260200182016040528015610743578160200160208202803683370190505b50905060005b825181101561078e5761076f8484838151811061076257fe5b60200260200101516118e0565b82828151811061077b57fe5b6020908102919091010152600101610749565b5092915050565b61079d611666565b6107a561167f565b6105068161190b565b60008060006107bb611989565b1592506107c66119a6565b91506107d06119ca565b9050909192565b60006107e1611666565b6107e9611710565b83516107f4816119ee565b610803834211156101fc6104db565b61081660008760800151116101fe6104db565b60006108258760400151611a20565b905060006108368860600151611a20565b9050610859816001600160a01b0316836001600160a01b031614156101fd6104db565b610861614ca7565b8851608082015260208901518190600181111561087a57fe5b9081600181111561088757fe5b9052506001600160a01b03808416602083015282811660408084019190915260808b0151606084015260a08b01516101008401528951821660c08401528901511660e08201526000806108d983611a45565b9198509250905061091060008c6020015160018111156108f557fe5b146109035789831115610908565b898210155b6101fb6104db565b6109288b60400151838c600001518d60200151611be0565b6109408b60600151828c604001518d60600151611cbe565b6109626109508c60400151611817565b61095b57600061095d565b825b6118bd565b505050505050610970611709565b949350505050565b610980611666565b610988611710565b61099483518351611d98565b606083516001600160401b03811180156109ad57600080fd5b506040519080825280602002602001820160405280156109d7578160200160208202803683370190505b509050606084516001600160401b03811180156109f357600080fd5b50604051908082528060200260200182016040528015610a1d578160200160208202803683370190505b5090506000805b8651811015610b96576000878281518110610a3b57fe5b602002602001015190506000878381518110610a5357fe5b60200260200101519050610a9e846001600160a01b0316836001600160a01b03161160006001600160a01b0316846001600160a01b031614610a96576066610a99565b60685b6104db565b819350816001600160a01b03166370a08231306040518263ffffffff1660e01b8152600401610acd9190615afd565b60206040518083038186803b158015610ae557600080fd5b505afa158015610af9573d6000803e3d6000fd5b505050506040513d601f19601f82011682018060405250810190610b1d9190615922565b858481518110610b2957fe5b602002602001018181525050610b3e81611da5565b868481518110610b4a57fe5b602002602001018181525050610b7881868581518110610b6657fe5b602002602001015110156102106104db565b610b8c6001600160a01b0383168b83611e2c565b5050600101610a24565b5060405163f04f270760e01b81526001600160a01b0388169063f04f270790610bc9908990899088908a90600401615c39565b600060405180830381600087803b158015610be357600080fd5b505af1158015610bf7573d6000803e3d6000fd5b5050505060005b8651811015610d68576000878281518110610c1557fe5b602002602001015190506000848381518110610c2d57fe5b602002602001015190506000826001600160a01b03166370a08231306040518263ffffffff1660e01b8152600401610c659190615afd565b60206040518083038186803b158015610c7d57600080fd5b505afa158015610c91573d6000803e3d6000fd5b505050506040513d601f19601f82011682018060405250810190610cb59190615922565b9050610cc6828210156102036104db565b60008282039050610cef888681518110610cdc57fe5b602002602001015182101561025a6104db565b610cf98482611e82565b836001600160a01b03168c6001600160a01b03167f0d7d75e01ab95780d3cd1c8ec0dd6c2ce19e3a20427eec8bf53283b6fb8e95f08c8881518110610d3a57fe5b602002602001015184604051610d51929190615e01565b60405180910390a350505050806001019050610bfe565b50505050610d74611709565b50505050565b610d82611666565b610d8a611710565b82610d9481611ea4565b610da083518351611d98565b60005b8351811015610e3e576000848281518110610dba57fe5b60200260200101519050610de660006001600160a01b0316826001600160a01b031614156101356104db565b838281518110610df257fe5b6020908102919091018101516000888152600a835260408082206001600160a01b0395861683529093529190912080546001600160a01b03191692909116919091179055600101610da3565b506000610e4a85611ed5565b90506002816002811115610e5a57fe5b1415610ea857610e70845160021461020c6104db565b610ea38585600081518110610e8157fe5b602002602001015186600181518110610e9657fe5b6020026020010151611eef565b610ed0565b6001816002811115610eb657fe5b1415610ec657610ea38585611f9b565b610ed08585611ff3565b847ff5847d3f2197b16cdcd2098ec95d0905cd1abdaf415f07bb7cef2bba8ac5dec48585604051610f02929190615ba1565b60405180910390a25050610f14611709565b505050565b610f21611666565b610f29611710565b81610f3381611ea4565b6000610f3e84611ed5565b90506002816002811115610f4e57fe5b1415610f9c57610f64835160021461020c6104db565b610f978484600081518110610f7557fe5b602002602001015185600181518110610f8a57fe5b6020026020010151612048565b610fc4565b6001816002811115610faa57fe5b1415610fba57610f9784846120b6565b610fc48484612170565b60005b835181101561102a57600a60008681526020019081526020016000206000858381518110610ff157fe5b6020908102919091018101516001600160a01b0316825281019190915260400160002080546001600160a01b0319169055600101610fc7565b50837f7dcdc6d02ef40c7c1a7046a011b058bd7f988fa14e20a66344f9d4e60657d6108460405161105b9190615b8e565b60405180910390a250506104e9611709565b60007f0000000000000000000000000000000000000000000000000000000000000000826040516020016110a2929190615a7c565b604051602081830303815290604052805190602001209050919050565b610d7460018585856110d0866121d3565b6121df565b6001600160a01b031660009081526002602052604090205490565b60606110fa611666565b611102611710565b835161110d816119ee565b61111c834211156101fc6104db565b61112886518551611d98565b6111348787878b612365565b91506000805b875181101561120657600088828151811061115157fe5b60200260200101519050600085838151811061116957fe5b6020026020010151905061119588848151811061118257fe5b60200260200101518213156101fb6104db565b60008113156111d557885160208a015182916111b49185918491611be0565b6111bd83611817565b156111cf576111cc8582611824565b94505b506111fc565b60008112156111fc5760008160000390506111fa83828c604001518d60600151611cbe565b505b505060010161113a565b50611210816118bd565b505061121a611709565b9695505050505050565b60035461010090046001600160a01b031690565b60006112426104b6565b905090565b60008060008085611257816125f3565b60008061126389611ed5565b9050600281600281111561127357fe5b141561128a576112838989612611565b91506112b5565b600181600281111561129857fe5b14156112a857611283898961268b565b6112b289896126f9565b91505b6112be82612711565b96506112c98261271d565b95506112d48261272c565b6000998a52600a60209081526040808c206001600160a01b039b8c168d5290915290992054969995989796909616955050505050565b611312611710565b610d7460008585856110d0866121d3565b7f000000000000000000000000000000000000000000000000000000000000000090565b61134f611666565b611357611710565b61135f614cf7565b60005b82518110156114595782818151811061137757fe5b60200260200101519150600082602001519050611393816125f3565b60408301516113ad6113a58383612732565b6102096104db565b6000828152600a602090815260408083206001600160a01b0385811685529252909120546113e0911633146101f66104db565b835160608501516000806113f68487878661278e565b91509150846001600160a01b0316336001600160a01b0316877f6edcaf6241105b4c94c2efdbf3a6b12458eb3d07be3a0e81d24b13c44045fe7a8585604051611440929190615e01565b60405180910390a4505050505050806001019050611362565b505061050e611709565b60006112426127fd565b6000808261147a816125f3565b6114838461289a565b61148c85611ed5565b925092505b50915091565b6060333014611551576000306001600160a01b03166000366040516114bd929190615a94565b6000604051808303816000865af19150503d80600081146114fa576040519150601f19603f3d011682016040523d82523d6000602084013e6114ff565b606091505b50509050806000811461150e57fe5b60046000803e6000516001600160e01b031916637d30e60960e11b8114611539573d6000803e3d6000fd5b50602060005260043d0380600460203e602081016000f35b606061155f85858589612365565b9050602081510263fa61cc126020830352600482036024820181fd5b60608060008361158a816125f3565b6060611595866128a0565b90955090506115a381612902565b95979096509350505050565b6115b7611666565b6115bf611710565b826115c9816119ee565b6001600160a01b0384811660008181526004602090815260408083209488168084529490915290819020805460ff1916861515179055519091907f46961fdb4502b646d5095fba7600486a8ac05041d55cdf0f16ed677180b5cad890611630908690615ccf565b60405180910390a350610f14611709565b600061164d83836129b0565b90505b92915050565b61050e816210905360ea1b6129de565b611678600260005414156101906104db565b6002600055565b60006116966000356001600160e01b03191661106d565b905061050e6116a58233612a3f565b6101916104db565b6040516001600160a01b038216907f94b979b6831a51293e2641426f97747feed46f17779fed9cd18d1ecefcfe92ef90600090a2600380546001600160a01b0390921661010002610100600160a81b0319909216919091179055565b6001600055565b61172361171b611989565b6101926104db565b565b60006001600160501b038216605084600281111561173f57fe5b901b17606085901b6001600160601b0319161790505b9392505050565b600080600080600080600088606001519050336001600160a01b0316816001600160a01b0316146117ae57876117995761179461167f565b600197505b6117ae6117a682336129b0565b6101f76104db565b885160208a015160408b01516080909b0151919b909a9992985090965090945092505050565b6117e9836117e186611a20565b836000612ac9565b50610d748482846000611cbe565b61180a8261180486611a20565b83612b1f565b610d748482856000611be0565b6001600160a01b03161590565b600082820161164d84821015836104db565b6118438385836000612ac9565b50610d74828583612b1f565b8015610d745761186a6001600160a01b038516848484612b4f565b826001600160a01b0316846001600160a01b03167f540a1a3f28340caec336c81d8d7b3df139ee5cdc1839a4f283d7ebb7eaae2d5c84846040516118af929190615b75565b60405180910390a350505050565b6118cc813410156102046104db565b3481900380156104e9576104e93382612b70565b6001600160a01b039182166000908152600b6020908152604080832093909416825291909152205490565b801561192b5761192661191c6119a6565b42106101936104db565b611940565b6119406119366119ca565b42106101a96104db565b6003805460ff19168215151790556040517f9e3a5e37224532dea67b89face185703738a228a6e8a23dee546960180d3be649061197e908390615ccf565b60405180910390a150565b60006119936119ca565b42118061124257505060035460ff161590565b7f000000000000000000000000000000000000000000000000000000000000000090565b7f000000000000000000000000000000000000000000000000000000000000000090565b336001600160a01b0382161461050e57611a0661167f565b611a1081336129b0565b61050e5761050e816101f7612bea565b6000611a2b82611817565b611a3d57611a38826104d8565b611650565b6116506104b6565b600c5460c08201516020830151604051630188466f60e71b81526000938493849384936001600160a01b039093169263c423378092611a88929091600401615b11565b602060405180830381600087803b158015611aa257600080fd5b505af1158015611ab6573d6000803e3d6000fd5b505050506040513d601f19601f82011682018060405250810190611ada9190615922565b9050611aef85606001518210156102116104db565b6000611afe866080015161289a565b90506000611b0f8760800151611ed5565b90506002816002811115611b1f57fe5b1415611b3657611b2f8783612c6b565b9550611b61565b6001816002811115611b4457fe5b1415611b5457611b2f8783612d1b565b611b5e8783612dae565b95505b611b748760000151886060015188612fd2565b809550819650505086604001516001600160a01b031687602001516001600160a01b031688608001517f2170c741c41531aec20e7c107c24eecfdd15e69c9bb0a8dd37b1840b9e0b207b8888604051611bce929190615e01565b60405180910390a45050509193909250565b82611bea57610d74565b611bf384611817565b15611c7457611c0581156102026104db565b611c14834710156102046104db565b611c1c6104b6565b6001600160a01b031663d0e30db0846040518263ffffffff1660e01b81526004016000604051808303818588803b158015611c5657600080fd5b505af1158015611c6a573d6000803e3d6000fd5b5050505050610d74565b6000611c7f856104d8565b90508115611c9c576000611c968483876001612ac9565b90940393505b8315611cb757611cb76001600160a01b038216843087612b4f565b5050505050565b82611cc857610d74565b611cd184611817565b15611d6157611ce381156102026104db565b611ceb6104b6565b6001600160a01b0316632e1a7d4d846040518263ffffffff1660e01b8152600401611d169190615cf2565b600060405180830381600087803b158015611d3057600080fd5b505af1158015611d44573d6000803e3d6000fd5b50611d5c925050506001600160a01b03831684612b70565b610d74565b6000611d6c856104d8565b90508115611d8457611d7f838286612b1f565b611cb7565b611cb76001600160a01b0382168486611e2c565b6104e981831460676104db565b600080611db0611323565b6001600160a01b031663d877845c6040518163ffffffff1660e01b815260040160206040518083038186803b158015611de857600080fd5b505afa158015611dfc573d6000803e3d6000fd5b505050506040513d601f19601f82011682018060405250810190611e209190615922565b90506117558382613000565b610f148363a9059cbb60e01b8484604051602401611e4b929190615b75565b60408051601f198184030181529190526020810180516001600160e01b03166001600160e01b031990931692909217909152613042565b80156104e9576104e9611e93611323565b6001600160a01b0384169083611e2c565b611ead816125f3565b61050e611eb98261289a565b6001600160a01b0316336001600160a01b0316146101f56104db565b600061ffff605083901c16611650600382106101f46104db565b611f10816001600160a01b0316836001600160a01b0316141561020a6104db565b611f2f816001600160a01b0316836001600160a01b03161060666104db565b60008381526009602052604090208054611f6c906001600160a01b0316158015611f64575060018201546001600160a01b0316155b61020b6104db565b80546001600160a01b039384166001600160a01b03199182161782556001909101805492909316911617905550565b6000828152600860205260408120905b8251811015610d74576000611fdc848381518110611fc557fe5b6020026020010151846130e290919063ffffffff16565b9050611fea8161020a6104db565b50600101611fab565b6000828152600160205260408120905b8251811015610d7457600061203184838151811061201d57fe5b602090810291909101015184906000613145565b905061203f8161020a6104db565b50600101612003565b60008060006120588686866131f2565b92509250925061208261206a846132b9565b801561207a575061207a836132b9565b61020d6104db565b600095865260096020526040862080546001600160a01b031990811682556001909101805490911690559490945550505050565b6000828152600860205260408120905b8251811015610d745760008382815181106120dd57fe5b6020026020010151905061212961207a600760008881526020019081526020016000206000846001600160a01b03166001600160a01b03168152602001908152602001600020546132b9565b60008581526007602090815260408083206001600160a01b0385168452909152812081905561215884836132c6565b9050612166816102096104db565b50506001016120c6565b6000828152600160205260408120905b8251811015610d7457600083828151811061219757fe5b6020026020010151905060006121ad84836133d4565b90506121bb61207a826132b9565b6121c584836133e3565b505050806001019050612180565b6121db614d20565b5090565b6121e7611666565b836121f1816125f3565b836121fb816119ee565b61220f836000015151846020015151611d98565b606061221e84600001516134b5565b9050606061222c8883613543565b905060608060606122418c8c8c8c8c896135d4565b92509250925060006122528c611ed5565b9050600281600281111561226257fe5b14156122ca576122c58c8760008151811061227957fe5b60200260200101518660008151811061228e57fe5b6020026020010151896001815181106122a357fe5b6020026020010151886001815181106122b857fe5b6020026020010151613799565b6122f3565b60018160028111156122d857fe5b14156122e9576122c58c87866137d8565b6122f38c85613845565b6000808e600181111561230257fe5b1490508b6001600160a01b03168d7fe5ce249087ce04f05a957192435400fd97868dba0e6a4b4c049abf8af80dae788961233c888661388e565b8760405161234c93929190615c00565b60405180910390a3505050505050505050611cb7611709565b606083516001600160401b038111801561237e57600080fd5b506040519080825280602002602001820160405280156123a8578160200160208202803683370190505b5090506123b3614d4a565b6123bb614ca7565b60008060005b89518110156125e6578981815181106123d657fe5b602002602001015194506000895186602001511080156123fa575089518660400151105b90506124078160646104db565b60006124298b88602001518151811061241c57fe5b6020026020010151611a20565b905060006124408c89604001518151811061241c57fe5b9050612463816001600160a01b0316836001600160a01b031614156101fd6104db565b60608801516124b35761247b600085116101fe6104db565b60006124888b8484613935565b6001600160a01b0316876001600160a01b03161490506124aa816101ff6104db565b50606088018590525b87516080880152868a60018111156124c757fe5b908160018111156124d457fe5b9052506001600160a01b0380831660208901528181166040808a01919091526060808b0151908a015260808a01516101008a01528c51821660c08a01528c01511660e088015260008061252689611a45565b919850925090506125388c8585613957565b975061256c61254683613971565b8c8c602001518151811061255657fe5b602002602001015161398490919063ffffffff16565b8b8b602001518151811061257c57fe5b6020026020010181815250506125ba61259482613971565b8c8c60400151815181106125a457fe5b60200260200101516139b890919063ffffffff16565b8b8b60400151815181106125ca57fe5b60200260200101818152505050505050508060010190506123c1565b5050505050949350505050565b60008181526005602052604090205461050e9060ff166101f46104db565b6000806000806000612622876139ec565b945094509450945050836001600160a01b0316866001600160a01b031614156126515782945050505050611650565b816001600160a01b0316866001600160a01b0316141561267657935061165092505050565b612681610209611656565b5050505092915050565b60008281526007602090815260408083206001600160a01b0385168452909152812054816126b882613a62565b806126d6575060008581526008602052604090206126d69085613a74565b9050806126f1576126e6856125f3565b6126f1610209611656565b509392505050565b600082815260016020526040812061097081846133d4565b6001600160701b031690565b60701c6001600160701b031690565b60e01c90565b60008061273e84611ed5565b9050600281600281111561274e57fe5b14156127665761275e8484613a95565b915050611650565b600181600281111561277457fe5b14156127845761275e8484613ae6565b61275e8484613afe565b600080600061279c86611ed5565b905060008760028111156127ac57fe5b14156127c8576127be86828787613b16565b92509250506127f4565b60018760028111156127d657fe5b14156127e8576127be86828787613b91565b6127be86828787613c0d565b94509492505050565b60007f00000000000000000000000000000000000000000000000000000000000000007f00000000000000000000000000000000000000000000000000000000000000007f000000000000000000000000000000000000000000000000000000000000000061286a613c70565b3060405160200161287f959493929190615da4565b60405160208183030381529060405280519060200120905090565b60601c90565b60608060006128ae84611ed5565b905060028160028111156128be57fe5b14156128d7576128cd84613c74565b92509250506128fd565b60018160028111156128e557fe5b14156128f4576128cd84613da9565b6128cd84613ece565b915091565b6060600082516001600160401b038111801561291d57600080fd5b50604051908082528060200260200182016040528015612947578160200160208202803683370190505b5091506000905060005b825181101561149157600084828151811061296857fe5b6020026020010151905061297b81613fc8565b84838151811061298757fe5b6020026020010181815250506129a5836129a08361272c565b613fe3565b925050600101612951565b6001600160a01b03918216600090815260046020908152604080832093909416825291909152205460ff1690565b62461bcd60e51b600090815260206004526007602452600a808404818106603090810160081b958390069590950190829004918206850160101b01602363ffffff0060e086901c160160181b0190930160c81b60445260e882901c90606490fd5b6003546040516326f8aa2160e21b815260009161010090046001600160a01b031690639be2a88490612a7990869086903090600401615cfb565b60206040518083038186803b158015612a9157600080fd5b505afa158015612aa5573d6000803e3d6000fd5b505050506040513d601f19601f8201168201806040525081019061164d9190615439565b600080612ad686866118e0565b9050612aef8380612ae75750848210155b6102016104db565b612af98185613fef565b9150818103612b15878783612b0d87613971565b600003613ffb565b5050949350505050565b6000612b2b84846118e0565b90506000612b398284611824565b9050611cb7858583612b4a87613971565b613ffb565b610d74846323b872dd60e01b858585604051602401611e4b93929190615b2b565b612b7f814710156101a36104db565b6000826001600160a01b031682604051612b98906104d8565b60006040518083038185875af1925050503d8060008114612bd5576040519150601f19603f3d011682016040523d82523d6000602084013e612bda565b606091505b50509050610f14816101a46104db565b6000612bf4614056565b9050612c02811515836104db565b6000612c0c614167565b9050600082612c19614173565b8051906020012033612c2a886110d5565b85604051602001612c3f959493929190615d78565b604051602081830303815290604052805190602001209050611cb78582612c646141c2565b8588614201565b600080600080612c888660800151876020015188604001516131f2565b92509250925060008087604001516001600160a01b031688602001516001600160a01b03161015612cbd575083905082612cc3565b50829050835b612ccf88888484614258565b60408b015160208c01519199509294509092506001600160a01b03918216911610612d0357612cfe8183614355565b612d0d565b612d0d8282614355565b909255509295945050505050565b600080612d308460800151856020015161268b565b90506000612d468560800151866040015161268b565b9050612d5485858484614258565b6080880180516000908152600760208181526040808420828e01516001600160a01b03908116865290835281852098909855935183529081528282209a830151909516815298909352919096209590955550929392505050565b60808201516000908152600160209081526040822090840151829182918290612dd8908390614390565b90506000612df388604001518461439090919063ffffffff16565b9050811580612e00575080155b15612e1d57612e1288608001516125f3565b612e1d610209611656565b60001991820191016000612e30846143af565b90506060816001600160401b0381118015612e4a57600080fd5b50604051908082528060200260200182016040528015612e74578160200160208202803683370190505b50600060a08c018190529091505b82811015612ef4576000612e9687836143b3565b9050612ea181613fc8565b838381518110612ead57fe5b602002602001018181525050612eca8c60a001516129a08361272c565b60a08d015281861415612edf57809850612eeb565b84821415612eeb578097505b50600101612e82565b5060405162f64aa560e11b81526001600160a01b038a16906301ec954a90612f26908d90859089908990600401615e0f565b602060405180830381600087803b158015612f4057600080fd5b505af1158015612f54573d6000803e3d6000fd5b505050506040513d601f19601f82011682018060405250810190612f789190615922565b9750600080612f908c600001518d606001518c612fd2565b9092509050612f9f89836143c9565b9850612fab88826143fa565b9750612fb887878b614410565b612fc387868a614410565b50505050505050505092915050565b60008080856001811115612fe257fe5b1415612ff2575082905081612ff8565b50819050825b935093915050565b600082820261302484158061301d57508385838161301a57fe5b04145b60036104db565b6001670de0b6b3a76400006001830304018115150291505092915050565b60006060836001600160a01b03168360405161305e9190615aa4565b6000604051808303816000865af19150503d806000811461309b576040519150601f19603f3d011682016040523d82523d6000602084013e6130a0565b606091505b509150915060008214156130b8573d6000803e3d6000fd5b610d748151600014806130da5750818060200190518101906130da9190615439565b6101a26104db565b60006130ee8383613a74565b61313d57508154600180820184556000848152602080822090930180546001600160a01b0319166001600160a01b03861690811790915585549082528286019093526040902091909155611650565b506000611650565b6001600160a01b0382166000908152600284016020526040812054806131d257505082546040805180820182526001600160a01b03858116808352602080840187815260008781526001808c018452878220965187546001600160a01b03191696169590951786559051948401949094559482018089559083526002880190945291902091909155611755565b600019016000908152600180860160205260408220018390559050611755565b60008060008060006132048787614428565b9150915060006132148383614459565b60008a81526009602090815260408083208484526002019091528120805460018201549197509293509061324783613a62565b80613256575061325682613a62565b8061327757506132668c87613a95565b801561327757506132778c86613a95565b905080613292576132878c6125f3565b613292610209611656565b61329c838361448c565b98506132a883836144b1565b975050505050505093509350939050565b6001600160e01b03161590565b6001600160a01b038116600090815260018301602052604081205480156133ca578354600019808301910180821461337257600086600001828154811061330957fe5b60009182526020909120015487546001600160a01b039091169150819088908590811061333257fe5b600091825260208083209190910180546001600160a01b0319166001600160a01b0394851617905592909116815260018881019092526040902090830190555b855486908061337d57fe5b60008281526020808220830160001990810180546001600160a01b03191690559092019092556001600160a01b038716825260018881019091526040822091909155935061165092505050565b6000915050611650565b600061164d83836102096144c8565b6001600160a01b038116600090815260028301602052604081205480156133ca578354600019808301910180821461346b576000818152600180880160209081526040808420868552818520815481546001600160a01b0319166001600160a01b039182161782558286015491860191909155905416845260028a0190915290912090830190555b600081815260018088016020908152604080842080546001600160a01b031916815583018490559389556001600160a01b0388168352600289019052918120559250611650915050565b60608082516001600160401b03811180156134cf57600080fd5b506040519080825280602002602001820160405280156134f9578160200160208202803683370190505b50905060005b835181101561078e5761351784828151811061241c57fe5b82828151811061352357fe5b6001600160a01b03909216602092830291909101909101526001016134ff565b6060806060613551856128a0565b9150915061356182518551611d98565b613571600083511161020f6104db565b60005b82518110156135cb576135c385828151811061358c57fe5b60200260200101516001600160a01b03168483815181106135a957fe5b60200260200101516001600160a01b0316146102086104db565b600101613574565b50949350505050565b60608060608060006135e586612902565b9150915060006135f48b61289a565b905060008c600181111561360457fe5b146136a757806001600160a01b03166374f3b0098c8c8c8787613625614505565b8f604001516040518863ffffffff1660e01b815260040161364c9796959493929190615d1a565b600060405180830381600087803b15801561366657600080fd5b505af115801561367a573d6000803e3d6000fd5b505050506040513d6000823e601f3d908101601f191682016040526136a291908101906153c7565b613740565b806001600160a01b031663d5c096c48c8c8c87876136c3614505565b8f604001516040518863ffffffff1660e01b81526004016136ea9796959493929190615d1a565b600060405180830381600087803b15801561370457600080fd5b505af1158015613718573d6000803e3d6000fd5b505050506040513d6000823e601f3d908101601f1916820160405261374091908101906153c7565b809550819650505061375687518651865161457f565b60008c600181111561376457fe5b1461377b576137768989898888614597565b613788565b6137888a898988886146dd565b955050505096509650969350505050565b60006137a58584614459565b600087815260096020908152604080832084845260020190915290209091506137ce8584614355565b9055505050505050565b60005b8251811015610d74578181815181106137f057fe5b602002602001015160076000868152602001908152602001600020600085848151811061381957fe5b6020908102919091018101516001600160a01b03168252810191909152604001600020556001016137db565b6000828152600160205260408120905b8251811015610d74576138868184838151811061386e57fe5b6020026020010151846144109092919063ffffffff16565b600101613855565b606082516001600160401b03811180156138a757600080fd5b506040519080825280602002602001820160405280156138d1578160200160208202803683370190505b50905060005b835181101561078e5782613901578381815181106138f157fe5b6020026020010151600003613916565b83818151811061390d57fe5b60200260200101515b82828151811061392257fe5b60209081029190910101526001016138d7565b60008084600181111561394457fe5b1461394f5781610970565b509092915050565b60008084600181111561396657fe5b1461078e5782610970565b60006121db60ff83901c156101a56104db565b600082820161164d82841280159061399c5750848212155b806139b157506000841280156139b157508482125b60006104db565b600081830361164d8284128015906139d05750848213155b806139e557506000841280156139e557508482135b60016104db565b6000818152600960205260408120805460018201546001600160a01b0391821692849290911690829081613a208685614459565b6000818152600284016020526040902080546001820154919950919250613a47828261448c565b9650613a5382826144b1565b94505050505091939590929450565b6000613a6d826132b9565b1592915050565b6001600160a01b031660009081526001919091016020526040902054151590565b600082815260096020526040812080546001600160a01b0384811691161480613acd575060018101546001600160a01b038481169116145b8015610970575050506001600160a01b03161515919050565b60008281526008602052604081206109708184613a74565b60008281526001602052604081206109708184614852565b6000806002856002811115613b2757fe5b1415613b3d57613b38868585614873565b613b67565b6001856002811115613b4b57fe5b1415613b5c57613b38868585614881565b613b6786858561488f565b8215613b8157613b816001600160a01b0385163385611e2c565b5050600081900394909350915050565b6000806002856002811115613ba257fe5b1415613bb857613bb386858561489d565b613be2565b6001856002811115613bc657fe5b1415613bd757613bb38685856148ab565b613be28685856148b9565b8215613bfd57613bfd6001600160a01b038516333086612b4f565b5090946000869003945092505050565b6000806002856002811115613c1e57fe5b1415613c3657613c2f8685856148c7565b9050613c63565b6001856002811115613c4457fe5b1415613c5557613c2f8685856148d7565b613c608685856148e7565b90505b6000915094509492505050565b4690565b606080600080600080613c86876139ec565b92975090955093509150506001600160a01b0384161580613cae57506001600160a01b038216155b15613cd757505060408051600080825260208201908152818301909252945092506128fd915050565b60408051600280825260608201835290916020830190803683370190505095508386600081518110613d0557fe5b60200260200101906001600160a01b031690816001600160a01b0316815250508186600181518110613d3357fe5b6001600160a01b03929092166020928302919091018201526040805160028082526060820183529092909190830190803683370190505094508285600081518110613d7a57fe5b6020026020010181815250508085600181518110613d9457fe5b60200260200101818152505050505050915091565b60008181526008602052604090206060908190613dc5816143af565b6001600160401b0381118015613dda57600080fd5b50604051908082528060200260200182016040528015613e04578160200160208202803683370190505b50925082516001600160401b0381118015613e1e57600080fd5b50604051908082528060200260200182016040528015613e48578160200160208202803683370190505b50915060005b8351811015613ec7576000613e6383836148f7565b905080858381518110613e7257fe5b6001600160a01b03928316602091820292909201810191909152600088815260078252604080822093851682529290915220548451859084908110613eb357fe5b602090810291909101015250600101613e4e565b5050915091565b60008181526001602052604090206060908190613eea816143af565b6001600160401b0381118015613eff57600080fd5b50604051908082528060200260200182016040528015613f29578160200160208202803683370190505b50925082516001600160401b0381118015613f4357600080fd5b50604051908082528060200260200182016040528015613f6d578160200160208202803683370190505b50915060005b8351811015613ec757613f868282614924565b858381518110613f9257fe5b60200260200101858481518110613fa557fe5b60209081029190910101919091526001600160a01b039091169052600101613f73565b6000613fd38261271d565b613fdc83612711565b0192915050565b80820390821002900390565b80820390821102900390565b6001600160a01b038085166000818152600b602090815260408083209488168084529490915290819020859055517f18e1ea4139e68413d7d08aa752e71568e36b2c5bf940893314c2c5b01eaa0c42906118af908590615cf2565b6000803560e01c8063b95cac28811461409e57638bdb391381146140c6576352bbbe2981146140ee5763945bcec981146141165763fa6e671d811461413e5760009250614162565b7f3f7b71252bd19113ff48c19c6e004a9bcfcca320a0d74d58e85877cbd7dcae589250614162565b7f8bbc57f66ea936902f50a71ce12b92c43f3c5340bb40c27c4e90ab84eeae33539250614162565b7fe192dcbc143b1e244ad73b813fd3c097b832ad260a157340b4e5e5beda067abe9250614162565b7f9bfc43a4d98313c6766986ffd7c916c7481566d9f224c6819af0a53388aced3a9250614162565b7fa3f865aa351e51cfeb40f5178d1564bb629fe9030b83caf6361d1baaf5b90b5a92505b505090565b60006112426000614948565b60606000368080601f0160208091040260200160405190810160405280939291908181526020018383808284376000920191909152505082519293505050608010156104d85760803603815290565b606060006141d06020614948565b905060006141de6040614948565b905060006141ec6060614948565b90506141f9838383614952565b935050505090565b600061420c85614991565b905061422261421c8783876149ad565b836104db565b614231428410156101b86104db565b5050506001600160a01b039092166000908152600260205260409020805460010190555050565b60008060008061426786613fc8565b9050600061427486613fc8565b905061428b6142828861272c565b6129a08861272c565b60a08a015260405163274b044360e21b81526001600160a01b03891690639d2c110c906142c0908c9086908690600401615e48565b602060405180830381600087803b1580156142da57600080fd5b505af11580156142ee573d6000803e3d6000fd5b505050506040513d601f19601f820116820180604052508101906143129190615922565b925060008061432a8b600001518c6060015187612fd2565b909250905061433989836143c9565b965061434588826143fa565b9550505050509450945094915050565b60008061436d6143648561272c565b6129a08561272c565b905061097061437b85612711565b61438485612711565b8363ffffffff16614a5c565b6001600160a01b03166000908152600291909101602052604090205490565b5490565b6000908152600191820160205260409020015490565b6000806143df836143d986612711565b90611824565b905060006143ec8561271d565b90504361121a838383614a6a565b6000806143df8361440a86612711565b90614a98565b60009182526001928301602052604090912090910155565b600080826001600160a01b0316846001600160a01b03161061444b57828461444e565b83835b915091509250929050565b6000828260405160200161446e929190615ac0565b60405160208183030381529060405280519060200120905092915050565b600061164d61449a84612711565b6144a384612711565b6144ac8661272c565b614a6a565b600061164d6144bf8461271d565b6144a38461271d565b6001600160a01b03821660009081526002840160205260408120546144ef811515846104db565b6144fc85600183036143b3565b95945050505050565b600061450f611323565b6001600160a01b03166355c676286040518163ffffffff1660e01b815260040160206040518083038186803b15801561454757600080fd5b505afa15801561455b573d6000803e3d6000fd5b505050506040513d601f19601f820116820180604052508101906112429190615922565b610f14828414801561459057508183145b60676104db565b606083516001600160401b03811180156145b057600080fd5b506040519080825280602002602001820160405280156145da578160200160208202803683370190505b50905060005b8551518110156146d35760008482815181106145f857fe5b602002602001015190506146288760200151838151811061461557fe5b60200260200101518210156101f96104db565b60008760000151838151811061463a57fe5b6020026020010151905061465481838b8b60600151611cbe565b600085848151811061466257fe5b6020026020010151905061467e61467883611a20565b82611e82565b6146ad61468b8483611824565b89868151811061469757fe5b60200260200101516143fa90919063ffffffff16565b8585815181106146b957fe5b6020026020010181815250505050508060010190506145e0565b5095945050505050565b6060600084516001600160401b03811180156146f857600080fd5b50604051908082528060200260200182016040528015614722578160200160208202803683370190505b50915060005b86515181101561484857600085828151811061474057fe5b602002602001015190506147708860200151838151811061475d57fe5b60200260200101518211156101fa6104db565b60008860000151838151811061478257fe5b6020026020010151905061479c81838c8c60600151611be0565b6147a581611817565b156147b7576147b48483611824565b93505b60008684815181106147c557fe5b602002602001015190506147db61467883611a20565b808310156147fa576147f58382038a868151811061469757fe5b614822565b6148228184038a868151811061480c57fe5b60200260200101516143c990919063ffffffff16565b86858151811061482e57fe5b602002602001018181525050505050806001019050614728565b506146d3816118bd565b6001600160a01b031660009081526002919091016020526040902054151590565b610d748383614aae84614ae9565b610d748383614aae84614b94565b610d748383614aae84614bef565b610d748383614c3284614ae9565b610d748383614c3284614b94565b610d748383614c3284614bef565b60006109708484614c5385614ae9565b60006109708484614c5385614b94565b60006109708484614c5385614bef565b600082600001828154811061490857fe5b6000918252602090912001546001600160a01b03169392505050565b600090815260019182016020526040902080549101546001600160a01b0390911691565b3601607f19013590565b60408051604180825260808201909252606091829190602082018180368337019050509050836020820152826040820152846060820153949350505050565b600061499b6127fd565b826040516020016110a2929190615ae2565b60006149bf82516041146101b96104db565b60208281015160408085015160608601518251600080825295019283905292939092811a916001906149f8908990859088908890615dd0565b6020604051602081039080840390855afa158015614a1a573d6000803e3d6000fd5b5050604051601f1901519150506001600160a01b03811615801590614a505750876001600160a01b0316816001600160a01b0316145b98975050505050505050565b60e01b60709190911b010190565b6000838301614a8d858210801590614a855750600160701b82105b61020e6104db565b6144fc858585614a5c565b6000614aa88383111560016104db565b50900390565b600080614abe8361440a86612711565b90506000614acf846143d98761271d565b90506000614adc8661272c565b905061121a838383614a6a565b6000806000806000614afa896139ec565b9450509350935093506000836001600160a01b0316896001600160a01b03161415614b45576000614b2f84898b63ffffffff16565b9050614b3b8185614c6d565b9093509050614b67565b6000614b5583898b63ffffffff16565b9050614b618184614c6d565b90925090505b614b718383614355565b8555614b7d8383614c89565b600190950194909455509192505050949350505050565b600080614ba1868661268b565b90506000614bb382858763ffffffff16565b60008881526007602090815260408083206001600160a01b038b16845290915290208190559050614be48183614c6d565b979650505050505050565b600084815260016020526040812081614c0882876133d4565b90506000614c1a82868863ffffffff16565b9050614c27838883613145565b50614a508183614c6d565b600080614c42836143d986612711565b90506000614acf8461440a8761271d565b600080614c5f84612711565b9050436144fc828583614a6a565b6000614c788261271d565b614c818461271d565b039392505050565b600061164d614c978461271d565b614ca08461271d565b6000614a5c565b60408051610120810190915280600081526000602082018190526040820181905260608083018290526080830182905260a0830182905260c0830182905260e08301919091526101009091015290565b604080516080810190915280600081526000602082018190526040820181905260609091015290565b60405180608001604052806060815260200160608152602001606081526020016000151581525090565b6040518060a0016040528060008019168152602001600081526020016000815260200160008152602001606081525090565b803561165081615f0c565b600082601f830112614d97578081fd5b8135614daa614da582615eb7565b615e91565b818152915060208083019084810181840286018201871015614dcb57600080fd5b60005b84811015614df3578135614de181615f0c565b84529282019290820190600101614dce565b505050505092915050565b600082601f830112614e0e578081fd5b8135614e1c614da582615eb7565b818152915060208083019084810160005b84811015614df3578135870160a080601f19838c03011215614e4e57600080fd5b614e5781615e91565b82860135815260408084013582880152606080850135918301919091526080808501359183019190915291830135916001600160401b03831115614e9a57600080fd5b614ea88c8885870101614f87565b90820152865250509282019290820190600101614e2d565b600082601f830112614ed0578081fd5b8135614ede614da582615eb7565b818152915060208083019084810181840286018201871015614eff57600080fd5b60005b84811015614df357813584529282019290820190600101614f02565b600082601f830112614f2e578081fd5b8151614f3c614da582615eb7565b818152915060208083019084810181840286018201871015614f5d57600080fd5b60005b84811015614df357815184529282019290820190600101614f60565b803561165081615f21565b600082601f830112614f97578081fd5b81356001600160401b03811115614fac578182fd5b614fbf601f8201601f1916602001615e91565b9150808252836020828501011115614fd657600080fd5b8060208401602084013760009082016020015292915050565b803561165081615f2f565b80356002811061165057600080fd5b80356004811061165057600080fd5b600060808284031215615029578081fd5b6150336080615e91565b905081356001600160401b038082111561504c57600080fd5b61505885838601614d87565b8352602084013591508082111561506e57600080fd5b61507a85838601614ec0565b6020840152604084013591508082111561509357600080fd5b506150a084828501614f87565b6040830152506150b38360608401614f7c565b606082015292915050565b6000608082840312156150cf578081fd5b6150d96080615e91565b905081356150e681615f0c565b815260208201356150f681615f21565b6020820152604082013561510981615f0c565b604082015260608201356150b381615f21565b60006020828403121561512d578081fd5b813561164d81615f0c565b6000806040838503121561514a578081fd5b823561515581615f0c565b9150602083013561516581615f0c565b809150509250929050565b600080600060608486031215615184578081fd5b833561518f81615f0c565b9250602084013561519f81615f0c565b915060408401356151af81615f21565b809150509250925092565b600080604083850312156151cc578182fd5b82356151d781615f0c565b915060208301356001600160401b038111156151f1578182fd5b6151fd85828601614d87565b9150509250929050565b60006020808385031215615219578182fd5b82356001600160401b0381111561522e578283fd5b8301601f8101851361523e578283fd5b803561524c614da582615eb7565b818152838101908385016080808502860187018a101561526a578788fd5b8795505b848610156152d35780828b031215615284578788fd5b61528d81615e91565b6152978b84614fef565b8152878301358882015260406152af8c828601614d7c565b9082015260608381013590820152845260019590950194928601929081019061526e565b509098975050505050505050565b600060208083850312156152f3578182fd5b82356001600160401b03811115615308578283fd5b8301601f81018513615318578283fd5b8035615326614da582615eb7565b8181528381019083850160a0808502860187018a1015615344578788fd5b8795505b848610156152d35780828b03121561535e578788fd5b61536781615e91565b6153718b84615009565b815261537f8b898501614d7c565b8189015260408381013590820152606061539b8c828601614d7c565b9082015260806153ad8c858301614d7c565b908201528452600195909501949286019290810190615348565b600080604083850312156153d9578182fd5b82516001600160401b03808211156153ef578384fd5b6153fb86838701614f1e565b93506020850151915080821115615410578283fd5b506151fd85828601614f1e565b60006020828403121561542e578081fd5b813561164d81615f21565b60006020828403121561544a578081fd5b815161164d81615f21565b600060208284031215615466578081fd5b5035919050565b60008060008060808587031215615482578182fd5b84359350602085013561549481615f0c565b925060408501356154a481615f0c565b915060608501356001600160401b038111156154be578182fd5b6154ca87828801615018565b91505092959194509250565b600080604083850312156154e8578182fd5b8235915060208301356001600160401b038111156151f1578182fd5b600080600060608486031215615518578081fd5b833592506020808501356001600160401b0380821115615536578384fd5b61554288838901614d87565b94506040870135915080821115615557578384fd5b508501601f81018713615568578283fd5b8035615576614da582615eb7565b81815283810190838501858402850186018b1015615592578687fd5b8694505b838510156155bd5780356155a981615f0c565b835260019490940193918501918501615596565b5080955050505050509250925092565b600080604083850312156155df578182fd5b82359150602083013561516581615f0c565b600060208284031215615602578081fd5b81356001600160e01b03198116811461164d578182fd5b6000806000806080858703121561562e578182fd5b843561563981615f0c565b935060208501356001600160401b0380821115615654578384fd5b61566088838901614d87565b94506040870135915080821115615675578384fd5b61568188838901614ec0565b93506060870135915080821115615696578283fd5b506154ca87828801614f87565b6000602082840312156156b4578081fd5b813561164d81615f2f565b60008060008060e085870312156156d4578182fd5b6156de8686614ffa565b935060208501356001600160401b03808211156156f9578384fd5b61570588838901614dfe565b9450604087013591508082111561571a578384fd5b5061572787828801614d87565b92505061573786606087016150be565b905092959194509250565b600080600080600080610120878903121561575b578384fd5b6157658888614ffa565b95506020878101356001600160401b0380821115615781578687fd5b61578d8b838c01614dfe565b975060408a01359150808211156157a2578687fd5b6157ae8b838c01614d87565b96506157bd8b60608c016150be565b955060e08a01359150808211156157d2578485fd5b508801601f81018a136157e3578384fd5b80356157f1614da582615eb7565b81815283810190838501858402850186018e101561580d578788fd5b8794505b8385101561582f578035835260019490940193918501918501615811565b50809650505050505061010087013590509295509295509295565b60008060008060e0858703121561585f578182fd5b84356001600160401b0380821115615875578384fd5b9086019060c08289031215615888578384fd5b61589260c0615e91565b823581526158a38960208501614ffa565b602082015260408301356158b681615f0c565b60408201526158c88960608501614d7c565b60608201526080830135608082015260a0830135828111156158e8578586fd5b6158f48a828601614f87565b60a08301525080965050505061590d86602087016150be565b939693955050505060a08201359160c0013590565b600060208284031215615933578081fd5b5051919050565b6001600160a01b03169052565b6000815180845260208085019450808401835b8381101561597f5781516001600160a01b03168752958201959082019060010161595a565b509495945050505050565b6000815180845260208085019450808401835b8381101561597f5781518752958201959082019060010161599d565b600081518084526159d1816020860160208601615ed6565b601f01601f19169290920160200192915050565b60006101208251600281106159f657fe5b808552506020830151615a0c602086018261593a565b506040830151615a1f604086018261593a565b50606083015160608501526080830151608085015260a083015160a085015260c0830151615a5060c086018261593a565b5060e0830151615a6360e086018261593a565b5061010080840151828287015261121a838701826159b9565b9182526001600160e01b031916602082015260240190565b6000828483379101908152919050565b60008251615ab6818460208701615ed6565b9190910192915050565b6001600160601b0319606093841b811682529190921b16601482015260280190565b61190160f01b81526002810192909252602282015260420190565b6001600160a01b0391909116815260200190565b6001600160a01b0392831681529116602082015260400190565b6001600160a01b039384168152919092166020820152604081019190915260600190565b6001600160a01b038316815260408101615b6883615f02565b8260208301529392505050565b6001600160a01b03929092168252602082015260400190565b60006020825261164d6020830184615947565b600060408252615bb46040830185615947565b828103602084810191909152845180835285820192820190845b81811015615bf35784516001600160a01b031683529383019391830191600101615bce565b5090979650505050505050565b600060608252615c136060830186615947565b8281036020840152615c25818661598a565b9050828103604084015261121a818561598a565b600060808252615c4c6080830187615947565b8281036020840152615c5e818761598a565b90508281036040840152615c72818661598a565b90508281036060840152614be481856159b9565b600060608252615c996060830186615947565b8281036020840152615cab818661598a565b915050826040830152949350505050565b60006020825261164d602083018461598a565b901515815260200190565b92151583526020830191909152604082015260600190565b90815260200190565b9283526001600160a01b03918216602084015216604082015260600190565b8781526001600160a01b0387811660208301528616604082015260e060608201819052600090615d4c9083018761598a565b8560808401528460a084015282810360c0840152615d6a81856159b9565b9a9950505050505050505050565b94855260208501939093526001600160a01b039190911660408401526060830152608082015260a00190565b9485526020850193909352604084019190915260608301526001600160a01b0316608082015260a00190565b93845260ff9290921660208401526040830152606082015260800190565b60208101615dfb83615f02565b91905290565b918252602082015260400190565b600060808252615e2260808301876159e5565b8281036020840152615e34818761598a565b604084019590955250506060015292915050565b600060608252615e5b60608301866159e5565b60208301949094525060400152919050565b938452602084019290925260408301526001600160a01b0316606082015260800190565b6040518181016001600160401b0381118282101715615eaf57600080fd5b604052919050565b60006001600160401b03821115615ecc578081fd5b5060209081020190565b60005b83811015615ef1578181015183820152602001615ed9565b83811115610d745750506000910152565b6003811061050e57fe5b6001600160a01b038116811461050e57600080fd5b801515811461050e57600080fd5b6003811061050e57600080fdfea2646970667358221220c0e512c53fd4fb3bcc072ba1ce808d294078a41034fe2ddbaad813dca147806264736f6c6343000701003360c060405234801561001057600080fd5b50604051610b50380380610b5083398101604081905261002f9161004d565b30608052600160005560601b6001600160601b03191660a05261007b565b60006020828403121561005e578081fd5b81516001600160a01b0381168114610074578182fd5b9392505050565b60805160a05160601c610aaa6100a6600039806103f252806104e35250806102875250610aaa6000f3fe608060405234801561001057600080fd5b50600436106100835760003560e01c806338e9922e1461008857806355c676281461009d5780636b6b9f69146100bb5780636daefab6146100ce578063851c1bb3146100e1578063aaabadc5146100f4578063d877845c14610109578063e42abf3514610111578063fbfa77cf14610131575b600080fd5b61009b61009636600461091f565b610139565b005b6100a5610198565b6040516100b29190610a11565b60405180910390f35b61009b6100c936600461091f565b61019e565b61009b6100dc36600461076e565b6101f1565b6100a56100ef3660046108bf565b610283565b6100fc6102d5565b6040516100b291906109a0565b6100a56102e4565b61012461011f3660046107ee565b6102ea565b6040516100b291906109cd565b6100fc6103f0565b610141610414565b6101586706f05b59d3b20000821115610258610445565b60018190556040517fa9ba3ffe0b6c366b81232caab38605a0699ad5398d6cce76f91ee809e322dafc9061018d908390610a11565b60405180910390a150565b60015490565b6101a6610414565b6101bc662386f26fc10000821115610259610445565b60028190556040517f5a0b7386237e7f07fa741efc64e59c9387d2cccafec760efed4d53387f20e19a9061018d908390610a11565b6101f9610457565b610201610414565b61020b8483610470565b60005b8481101561027357600086868381811061022457fe5b90506020020160208101906102399190610903565b9050600085858481811061024957fe5b6020029190910135915061026990506001600160a01b038316858361047d565b505060010161020e565b5061027c6104d8565b5050505050565b60007f0000000000000000000000000000000000000000000000000000000000000000826040516020016102b892919061094f565b604051602081830303815290604052805190602001209050919050565b60006102df6104df565b905090565b60025490565b606081516001600160401b038111801561030357600080fd5b5060405190808252806020026020018201604052801561032d578160200160208202803683370190505b50905060005b82518110156103ea5782818151811061034857fe5b60200260200101516001600160a01b03166370a08231306040518263ffffffff1660e01b815260040161037b91906109a0565b60206040518083038186803b15801561039357600080fd5b505afa1580156103a7573d6000803e3d6000fd5b505050506040513d601f19601f820116820180604052508101906103cb9190610937565b8282815181106103d757fe5b6020908102919091010152600101610333565b50919050565b7f000000000000000000000000000000000000000000000000000000000000000081565b600061042b6000356001600160e01b031916610283565b905061044261043a8233610572565b610191610445565b50565b816104535761045381610604565b5050565b61046960026000541415610190610445565b6002600055565b6104538183146067610445565b6104d38363a9059cbb60e01b848460405160240161049c9291906109b4565b60408051601f198184030181529190526020810180516001600160e01b03166001600160e01b031990931692909217909152610614565b505050565b6001600055565b60007f00000000000000000000000000000000000000000000000000000000000000006001600160a01b031663aaabadc56040518163ffffffff1660e01b815260040160206040518083038186803b15801561053a57600080fd5b505afa15801561054e573d6000803e3d6000fd5b505050506040513d601f19601f820116820180604052508101906102df91906108e7565b600061057c6104df565b6001600160a01b0316639be2a8848484306040518463ffffffff1660e01b81526004016105ab93929190610a1a565b60206040518083038186803b1580156105c357600080fd5b505afa1580156105d7573d6000803e3d6000fd5b505050506040513d601f19601f820116820180604052508101906105fb9190610898565b90505b92915050565b610442816210905360ea1b6106ba565b60006060836001600160a01b0316836040516106309190610967565b6000604051808303816000865af19150503d806000811461066d576040519150601f19603f3d011682016040523d82523d6000602084013e610672565b606091505b5091509150600082141561068a573d6000803e3d6000fd5b6106b48151600014806106ac5750818060200190518101906106ac9190610898565b6101a2610445565b50505050565b62461bcd60e51b600090815260206004526007602452600a808404818106603090810160081b958390069590950190829004918206850160101b01602363ffffff0060e086901c160160181b0190930160c81b60445260e882901c90606490fd5b60008083601f84011261072c578182fd5b5081356001600160401b03811115610742578182fd5b602083019150836020808302850101111561075c57600080fd5b9250929050565b80356105fe81610a5f565b600080600080600060608688031215610785578081fd5b85356001600160401b038082111561079b578283fd5b6107a789838a0161071b565b909750955060208801359150808211156107bf578283fd5b506107cc8882890161071b565b90945092505060408601356107e081610a5f565b809150509295509295909350565b60006020808385031215610800578182fd5b82356001600160401b0380821115610816578384fd5b818501915085601f830112610829578384fd5b813581811115610837578485fd5b8381029150610847848301610a39565b8181528481019084860184860187018a1015610861578788fd5b8795505b8386101561088b576108778a82610763565b835260019590950194918601918601610865565b5098975050505050505050565b6000602082840312156108a9578081fd5b815180151581146108b8578182fd5b9392505050565b6000602082840312156108d0578081fd5b81356001600160e01b0319811681146108b8578182fd5b6000602082840312156108f8578081fd5b81516108b881610a5f565b600060208284031215610914578081fd5b81356108b881610a5f565b600060208284031215610930578081fd5b5035919050565b600060208284031215610948578081fd5b5051919050565b9182526001600160e01b031916602082015260240190565b60008251815b81811015610987576020818601810151858301520161096d565b818111156109955782828501525b509190910192915050565b6001600160a01b0391909116815260200190565b6001600160a01b03929092168252602082015260400190565b6020808252825182820181905260009190848201906040850190845b81811015610a05578351835292840192918401916001016109e9565b50909695505050505050565b90815260200190565b9283526001600160a01b03918216602084015216604082015260600190565b6040518181016001600160401b0381118282101715610a5757600080fd5b604052919050565b6001600160a01b038116811461044257600080fdfea2646970667358221220f7dfc632368c09bab0159c7d26f9a93192ba85de80a8869a71a9970c7ee2389964736f6c63430007010033",
  "linkReferences": {},
  "deployedLinkReferences": {}
}